:020000040800F2
:10000000900A00205D170008A9060008AB0600084A
:10001000AF060008B3060008B7060008000000009D
:10002000000000000000000000000000BB06000807
:10003000BD06000800000000BF060008C106000859
:100040007717000877170008771700087717000858
:100050007717000877170008C3060008771700080D
:100060007717000877170008771700087717000838
:100070007717000877170008771700087717000828
:100080007717000877170008771700087717000818
:100090007717000877170008771700087717000808
:1000A00077170008771700087717000877170008F8
:1000B00077170008771700087717000877170008E8
:1000C00077170008771700087717000877170008D8
:1000D00077170008771700087717000877170008C8
:1000E00077170008771700087717000877170008B8
:1000F00077170008771700087717000877170008A8
:100100007717000877170008771700087717000897
:100110007717000877170008771700087717000887
:100120007717000877170008771700087717000877
:1001300000F002F800F05AF80AA090E8000C82449F
:100140008344AAF10107DA4501D100F04FF8AFF27C
:10015000090EBAE80F0013F0010F18BFFB1A43F0A5
:1001600001031847BC2B0000DC2B00000A444FF0B1
:10017000000C10F8013B13F0070408BF10F8014B06
:100180001D1108BF10F8015B641E05D010F8016B4B
:10019000641E01F8016BF9D113F0080F1EBF10F8AF
:1001A000014BAD1C0C1B09D16D1E58BF01F801CBD2
:1001B000FAD505E014F8016B01F8016B6D1EF9D555
:1001C0009142D6D37047000000230024002500266A
:1001D000103A28BF78C1FBD8520728BF30C148BFAA
:1001E0000B6070471FB51FBD10B510BD02F055F96B
:1001F0001146FFF7F7FF00F009F802F073F903B4B6
:10020000FFF7F2FF03BC02F077F9000086B001208F
:100210008DF8120000208DF813008DF814000120D5
:100220008DF8110000208DF815008DF81000DDE923
:100230000401CDE9020102208DF80B001E208DF88B
:100240000C001F208DF80D0001F020FA00F03EFF99
:1002500000F026FF00F090FF01F046F901F01BF8D6
:10026000012080F3108800BF002080F3108800BFB9
:1002700000221146104601F0CBF801220021122085
:1002800001F0C6F802220021242001F0C1F8032267
:100290000021362001F0BCF804220021482001F0A2
:1002A000B7F8052200215A2001F0B2F806220021F9
:1002B0006C2001F0ADF84FF47A5001F023FA00F011
:1002C000EAFF9DF815009DF81410CDE900109DF887
:1002D00013309DF812209DF811109DF8100000F0C9
:1002E0000FFE08200123022200210090084601F0A1
:1002F00032F80820012300221146009001F02BF86B
:1003000007220021202001F083F80822002140204C
:1003100001F07EF809220021602001F079F80A221C
:100320000221102001F074F80B220221302001F08C
:100330006FF80C220221502001F06AF8B0E14FF46E
:100340000061D84800F0D6FE00287DD0684600F055
:1003500009FEDDE90001CDE904019DF810000A2144
:1003600090FBF1F5082001232A460021009010207F
:1003700000F0F1FF9DF810000A2190FBF1F201FB63
:100380001205082001232A4600210090182000F0C1
:10039000E2FF9DF811000A2190FBF1F508200123EE
:1003A0002A4600210090302000F0D5FF9DF8110072
:1003B0000A2190FBF1F201FB1205082001232A46D5
:1003C00000210090382000F0C6FF9DF812000A219D
:1003D00090FBF1F5082001232A46002100905020CF
:1003E00000F0B9FF9DF812000A2190FBF1F201FB29
:1003F0001205082001232A4600210090582000F011
:10040000AAFF9DF813000A2190FBF1F508200123B3
:100410002A4602210090002000F09DFF9DF8130065
:100420000A2190FBF1F201FB1205082001232A4664
:100430000221009000F08FFF9DF814000A2190FB2C
:10044000F1F50820012300E03EE02A460221009059
:10045000202000F080FF9DF814000A2190FBF1F2AB
:1004600001FB1205082001232A46022100902820C2
:1004700000F071FF9DF815000A2190FBF1F50820AE
:1004800001232A4602210090402000F064FF9DF8DD
:1004900015000A2190FBF1F201FB1205082001234F
:1004A0002A4602210090482000F055FFDDE90401B2
:1004B000CDE9020102208DF80B001E208DF80C0002
:1004C0001F208DF80D00EBE0002405E04CF25030C9
:1004D00001F0F5F8601CC4B2132CF7DB9DF80D0099
:1004E000401CC0B28DF80D009DF80D003C282FD1A6
:1004F00000208DF80D009DF80C00401CC0B28DF856
:100500000C009DF80C003C2822D100208DF80C0036
:100510009DF80B00401CC0B28DF80B009DF80B003D
:10052000182815D100208DF80B009DF80A00401CFA
:10053000C0B28DF80A009DF80A001F2808D10120DA
:100540008DF80A009DF80900401CC0B28DF8090022
:1005500000249DF808000A2190FBF1F508200123F2
:100560002A4600210090102000F0F5FE9DF80800BA
:100570000A2190FBF1F201FB1205082001232A4613
:1005800000210090182000F0E6FE9DF809000A21E5
:1005900090FBF1F5082001232A460021009030202D
:1005A00000F0D9FE9DF809000A2190FBF1F201FB51
:1005B0001205082001232A4600210090382000F06F
:1005C000CAFE9DF80A000A2190FBF1F508200123DC
:1005D0002A4600210090502000F0BDFE9DF80A0040
:1005E0000A2190FBF1F201FB1205082001232A46A3
:1005F00000210090582000F0AEFE9DF80B000A216B
:1006000090FBF1F5082001232A46022100900020EA
:1006100000F0A1FE9DF80B000A2190FBF1F201FB16
:100620001205082001232A460221009000F093FEC3
:100630009DF80C000A2190FBF1F5082001232A46C1
:1006400002210090202000F086FE9DF80C000A2177
:1006500090FBF1F201FB1205082001232A4602213A
:100660000090282000F077FE9DF80D000A2190FBF5
:10067000F1F5082001232A4602210090402000F0D5
:100680006AFE9DF80D000A2190FBF1F201FB1205B4
:10069000082001232A4602210090482000F05BFE3A
:1006A0004DE6000000180140704700BFFEE700BFA4
:1006B000FEE700BFFEE700BFFEE7704770477047E8
:1006C00070477FB5002400208DF8080001208DF8C8
:1006D00009008DF80A0000208DF80B008DF80C0041
:1006E0008DF80D0008200123022200210090084609
:1006F00000F031FE0820012300221146009000F096
:100700002AFE07220021202000F082FE082200217C
:10071000402000F07DFE09220021602000F078FEDC
:100720000A220221102000F073FE0B220221302049
:1007300000F06EFE0C220221502000F069FE9DF8B0
:1007400008000A2190FBF1F5082001232A46002128
:100750000090102000F0FFFD9DF808000A2190FB9A
:10076000F1F201FB1205082001232A460021009026
:10077000182000F0F0FD9DF809000A2190FBF1F52A
:10078000082001232A4600210090302000F0E3FDDC
:100790009DF809000A2190FBF1F201FB12050820E7
:1007A00001232A4600210090382000F0D4FD9DF856
:1007B0000A000A2190FBF1F5082001232A460021B6
:1007C0000090502000F0C7FD9DF80A000A2190FB20
:1007D000F1F201FB1205082001232A4600210090B6
:1007E000582000F0B8FD9DF80B000A2190FBF1F5B0
:1007F000082001232A4602210090002000F0ABFDD2
:100800009DF80B000A2190FBF1F201FB1205082074
:1008100001232A460221009000F09DFD9DF80C0066
:100820000A2190FBF1F5082001232A4602210090BD
:10083000202000F090FD9DF80C000A2190FBF1F2C1
:1008400001FB1205082001232A46022100902820DE
:1008500000F081FD9DF80D000A2190FBF1F50820C4
:1008600001232A4602210090402000F074FD9DF8EB
:100870000D000A2190FBF1F201FB12050820012373
:100880002A4602210090482000F065FD012001F079
:10089000E7FD00287ED0C348006880F02000C149F1
:1008A00008600D220521102000F0B2FD0E22052166
:1008B000202000F0ADFD72E14FF48071B9480C3892
:1008C00000F02EFC88BB601CC4B2072C00D10024B1
:1008D000072C29D2DFE804F028040A10161C220095
:1008E0000C220521002000F093FD1DE00B220521C4
:1008F000002000F08DFD17E00A220521002000F005
:1009000087FD11E009220521002000F081FD0BE0A8
:1009100008220521002000F07BFD05E007220521CB
:10092000002000F075FD00BF00BF4FF400719D482E
:100930000C3800F0F5FB00287DD1072C30D2DFE821
:1009400004F02F04305A85AFD9009DF80D00401CEB
:10095000C0B28DF80D009DF80D000A2190FBF1F555
:10096000082001232A4602210090402000F0F3FCD9
:100970009DF80D000A2190FBF1F201FB1205082001
:1009800001232A4602210090482000F0E4FC9DF853
:100990000D0000E005E13C2802D100208DF80D009B
:1009A000D2E09DF80C00401CC0B28DF80C009DF800
:1009B0000C000A2190FBF1F5082001232A460221B0
:1009C0000090202000F0C7FC9DF80C000A2190FB4D
:1009D000F1F201FB1205082001232A4602210090B2
:1009E000282000F0B8FC9DF80C003C2802D1002023
:1009F0008DF80C00A8E09DF80B00401CC0B28DF8EB
:100A00000B009DF80B000A2190FBF1F50820012353
:100A10002A4602210090002000F09DFC9DF80B006A
:100A20000A2190FBF1F201FB1205082001232A465E
:100A30000221009000E098E000F08DFC9DF80B0092
:100A4000182802D100208DF80B007DE09DF80A00E7
:100A5000401CC0B28DF80A009DF80A000A2190FBE4
:100A6000F1F5082001232A4600210090502000F0D3
:100A700072FC9DF80A000A2190FBF1F201FB1205BD
:100A8000082001232A4600210090582000F063FC32
:100A90009DF80A001F2802D101208DF80A0053E0BA
:100AA0009DF80900401CC0B28DF809009DF80900AE
:100AB0000A2190FBF1F5082001232A46002100902D
:100AC000302000F048FC9DF809000A2190FBF1F26B
:100AD00001FB1205082001232A460021009038203E
:100AE00000F039FC9DF809000C2802D101208DF896
:100AF000090029E09DF80800401CC0B28DF80800EC
:100B00009DF808000A2190FBF1F5082001232A46F0
:100B100000210090102000F01EFC9DF808000A2122
:100B200090FBF1F201FB1205082001232A46002167
:100B30000090182000F00FFC9DF80800632802D1F7
:100B400000208DF8080000BF00BF9DF80D009DF843
:100B50000C10CDE900109DF80B309DF80A209DF88F
:100B600009109DF8080000F0CBF94FF480610D48A2
:100B70000C3800F0BFFA90B90F220521102000F0C8
:100B800047FC0F220521202000F042FC0F22052106
:100B9000002000F03DFC012001F073FC00E08BE63A
:100BA00000BF7FBD0C1801400CB5002001900090E3
:100BB0006B48006840F480306949086000BF6848AD
:100BC000006800F4003000900198401C01900098EB
:100BD00018B90198B0F5A06FF1D16148006810F420
:100BE000003F02D00120009001E00020009000981A
:100BF000012842D15B48006840F010005949086064
:100C00000846006820F0030008600846006840F0CD
:100C100002000860524840685149486008464068F0
:100C200048600846406840F4806048600846406874
:100C300020F47C1048600846406840F4E8104860A2
:100C40000846006840F08070086000BF44480068B3
:100C500010F0007FFAD04248406820F0030040497D
:100C600048600846406840F00200486000BF3C48C9
:100C7000406800F00C000828F9D10CBD10B5FFF752
:100C800093FF10BD10B53648006840F001003449AC
:100C900008600846406834490840314948600846C1
:100CA0000068324908402E4908600846006820F470
:100CB000802008600846406820F4FE0048604FF439
:100CC0001F008860FFF7DAFF4FF0006028490860D6
:100CD00010BD10B5002100200022214B5B6803F0FD
:100CE0000C0121B1042906D0082928D107E0214BA5
:100CF000214C236027E01F4B1F4C236023E0184B3F
:100D00005B6803F47010164B5B6803F480320223B7
:100D100003EB904022B9194B4343174C23600DE07D
:100D20000F4B5B6813F4003F04D0144B4343124C49
:100D3000236003E00F4B43430F4C236003E00D4B54
:100D40000D4C236000BF00BF054B5B68C3F303136A
:100D50000B4CE15C084B1B68CB40074C236010BD7B
:100D600000100240002002400000FFF8FFFFF6FEE6
:100D700008ED00E000127A000000002000093D00AC
:100D80000400002008B50121082001F08BF80121A2
:100D9000480501F094F8C020ADF8000003208DF85C
:100DA00002001C208DF803006946B84800F0C4FD1D
:100DB00008BD1FB50020ADF804004BF6FF70ADF87C
:100DC00006000A20ADF808004FF48060ADF80A0074
:100DD0000001ADF80C00AE4800906946AD4801F046
:100DE000E2F80121AB4801F05CF91FBD70B5044683
:100DF0000D4600BF4FF40031A64801F079FA0028F3
:100E0000F8D10121A34801F070F900BFA249A1481F
:100E100001F04CFA0028F9D00022A2219D4801F0EF
:100E2000BAF900BF9D499B4801F040FA0028F9D06B
:100E30002146984801F0A9F900BF9849891C9548B6
:100E400001F034FA0028F8D02946924801F09DF9C3
:100E50000121904801F055F970BD70B5044601219B
:100E60008C4801F042F900BF8B498A4801F01EFA14
:100E70000028F9D00022A221864801F08CF900BF99
:100E80008649844801F012FA0028F9D021468148A9
:100E900001F07BF900BF8149891C7E4801F006FA08
:100EA0000028F8D001217B4801F01FF900BF7A49E2
:100EB000784801F0FBF90028F9D00122A3217548F8
:100EC00001F069F900BF7449491C724801F0EEF95C
:100ED0000028F8D000BF70493F316E4801F0E6F9B4
:100EE0000028F8D06B4801F052F905460021694806
:100EF00001F013F90121674801F003F9284670BD9C
:100F00002DE9F04704460F4615461E46DDE90889DF
:100F1000FFF738FFFFF74DFF00210846FFF766FF98
:100F200000210120FFF762FF49460220FFF75EFF24
:100F300041460320FFF75AFF31460420FFF756FFD2
:100F400029460520FFF752FF39460720FFF74EFFDD
:100F500021460820FFF74AFF00210846FFF746FF19
:100F6000BDE8F0877CB505460220FFF776FF00F06C
:100F70007F042046E21704EB12721211A4EB021256
:100F80002146E31704EB13731B1103EB830302EBFE
:100F90004304E0B28DF805000320FFF75EFF00F088
:100FA0007F042046E21704EB12721211A4EB021226
:100FB0002146E31704EB13731B1103EB830302EBCE
:100FC0004304E0B28DF804000420FFF746FF00F070
:100FD0003F042046E21704EB12721211A4EB021335
:100FE0002146E21704EB1272121103EB0214E0B275
:100FF0008DF803000520FFF730FF00F03F04204686
:10100000E21704EB12721211A4EB02122146E3174D
:1010100004EB13731B1103EB830302EB4304E0B2F5
:101020008DF802000720FFF718FF00F01F0420468C
:10103000E21704EB12721211A4EB02122146E3171D
:1010400004EB13731B1103EB830302EB4304E0B2C5
:101050008DF801000820FFF700FF00F01F04204674
:10106000E21704EB12721211A4EB02132146E217ED
:1010700004EB1272121103EB0214E0B28DF80000BF
:1010800000982860BDF80400A8807CBD000C0140D9
:10109000801A06000054004001000300820007008F
:1010A00008B50121402000F0FDFE10208DF803005E
:1010B0006020ADF8000003208DF802006946024868
:1010C00000F03AFC08BD00000018014008B50121FD
:1010D000402000F0E7FE48208DF803004FF47060D8
:1010E000ADF8000001208DF802006946174800F0B5
:1010F00023FC08BD70B504460D462946204600F085
:10110000ACFC58B9012000F0FDFA2946204600F059
:10111000A4FC08B9002070BD0120FCE70120FAE71B
:1011200070B504460D462946204600F096FC58B995
:10113000642000F0E7FA2946204600F08EFC08B94A
:10114000002070BD0120FCE70120FAE700180140F3
:1011500008B54FF4C06000F021FB06208DF80000B8
:1011600000208DF801008DF8020001208DF80300A9
:10117000684600F018FB08BD0EB50121052000F0FF
:1011800091FEFFF7E5FF0120ADF8080028208DF85B
:101190000B0002A90A4800F0CFFB0021084600F02E
:1011A000DFFC0120009000208DF804000C208DF859
:1011B000050001208DF80600684601F0EBF80EBD31
:1011C0000008014070B504460E4626B12021FE48B5
:1011D00000F05DFC03E02021FB4800F05AFC0821F0
:1011E000F94800F056FC002517E04021F64800F0D1
:1011F00050FC14F0800F04D08021F34800F047FC2D
:1012000003E08021F04800F044FC4021EE4800F06B
:101210003EFC6006040E681CC5B2082DE5DB082103
:10122000E94800F034FC2021E74800F030FC70BDB4
:1012300070B504460D4605F1B001C8B20021FFF7B4
:10124000C1FF102141EA14100021FFF7BBFF04F099
:101250000F0141F001000021FFF7B4FF70BD10B590
:1012600000218D20FFF7AEFF00211420FFF7AAFF19
:101270000021AF20FFF7A6FF10BD10B500218D2083
:10128000FFF7A0FF00211020FFF79CFF0021AE20F8
:10129000FFF798FF10BD70B5002419E004F1B0010C
:1012A000C8B20021FFF78EFF00210220FFF78AFF5E
:1012B00000211020FFF786FF002505E00121002016
:1012C000FFF780FF681CC5B2802DF7DB601CC4B23D
:1012D000082CE3DB70BD2DE9F04107460E46904631
:1012E00000250024A8F12000C5B27F2F02DD0027D1
:1012F000B01CC6B231463846FFF79AFF002408E01A
:1013000004EB0511B14A505C0121FFF75BFF601C43
:10131000C4B2082CF4DB701CC1B23846FFF788FF5A
:10132000002409E004EB05110831A84A505C0121B2
:10133000FFF748FF601CC4B2082CF3DBBDE8F08166
:1013400010B50246012000E050430B00A1F101045A
:10135000E1B2F9D110BD2DE9FF5F074691461D4668
:101360000E9E4FF0000A002433E0281B401EC1B23D
:101370000A20FFF7E5FFB9FBF0F00A21B0FBF1F21C
:1013800001FB1208BAF1000F13D1681EA04210DD54
:10139000B8F1000F0BD1B34606EBDB71491001FB2E
:1013A0000471C8B220220199FFF795FF0FE04FF0BA
:1013B000010AB34606EBDB71491001FB0471C8B2A8
:1013C00008F13001CAB20199FFF785FF00BF601C28
:1013D000C4B2AC42C9DBBDE8FF9F2DE9F041044631
:1013E0000F46154600260EE0AA5D39462046FFF757
:1013F00072FF04F10800C4B2782C02DD0024B81C8E
:10140000C7B2701CC6B2A85D0028EDD1BDE8F0815E
:101410002DE9F04180460E461546002731464046EC
:10142000FFF706FF00240AE0694A02EB8511085D18
:101430000121FFF7C7FE781CC7B2601CC4B2102C94
:10144000F2DB701CC1B24046FFF7F2FE00240CE054
:101450006900491C5E4A02EB4111085D0121FFF75A
:10146000B1FE781CC7B2601CC4B2102CF0DBBDE822
:10147000F0812DE9F05F06460F4690461C46DDF8E8
:1014800028A04FF0000BE11704EB5171C910B4EB29
:10149000C10106D12046E11704EB5171C1F3C70524
:1014A00006E02046E11704EB5171C910491CCDB28A
:1014B0003D4615E029463046FFF7BAFEB1460BE03F
:1014C00059460BF1010B1AF801000121FFF77AFED2
:1014D00009F1010000F0FF09C145F1DB681CC5B24C
:1014E000A542E7DBBDE8F09F08B501214FF49470F9
:1014F00000F0D8FC4FF4FC70ADF8000010208DF81F
:10150000030003208DF8020069462F4800F014FA0A
:101510004FF4FC712C4800F0BAFA0320ADF800003B
:1015200069462C4800F008FA03212A4800F0AFFA77
:101530004FF40040ADF800006946274800F0FCF980
:101540004FF40041244800F0A2FA10211E4800F098
:101550009EFA642000F0D6F810211B4800F099FA9A
:10156000642000F0CFF81021174800F090FA002115
:10157000AE20FFF727FE00210220FFF723FE002107
:101580001020FFF71FFE00214020FFF71BFE002167
:101590008120FFF717FE0021CF20FFF713FE002167
:1015A000A120FFF70FFE0021C820FFF70BFE00214E
:1015B000A620FFF707FE0021A820FFF703FE002169
:1015C0003F20FFF7FFFD09E0001401402E2700082F
:1015D0001400002000100140002001400021812063
:1015E000FFF7F0FD0021FF20FFF7ECFD0021D320E5
:1015F000FFF7E8FD00210846FFF7E4FD0021D520B4
:10160000FFF7E0FD00218020FFF7DCFD0021D9205D
:10161000FFF7D8FD0021F120FFF7D4FD0021DA20EB
:10162000FFF7D0FD00211220FFF7CCFD0021DB20C9
:10163000FFF7C8FD00214020FFF7C4FD0021202056
:10164000FFF7C0FD00210220FFF7BCFD00218D2027
:10165000FFF7B8FD00211420FFF7B4FD0021A420FE
:10166000FFF7B0FD0021A620FFF7ACFD0021AF2061
:10167000FFF7A8FD0021AF20FFF7A4FDFFF70BFE49
:1016800000210846FFF7D4FD08BD000010B56FF03B
:10169000040000F0D3F82D4800682D49B0FBF1F0AC
:1016A0002C4908700846007800EB4001C1EBC010DF
:1016B0004FF6FF7101EAC0002749088010BD0146BE
:1016C000244A12784A434FF0E0235A6100229A617B
:1016D0001A46126942F001021A6100BF4FF0E0227F
:1016E000106910F0010F02D010F4803FF6D04FF0D7
:1016F000E022126922F001024FF0E0231A61002279
:101700009A6170470146144A12884A434FF0E02319
:101710005A6100229A611A46126942F001021A6166
:1017200000BF4FF0E022106910F0010F02D010F45A
:10173000803FF6D04FF0E022126922F001024FF014
:10174000E0231A6100229A61704700000000002027
:1017500000127A0014040020160400200948804773
:1017600009480047FEE7FEE7FEE7FEE7FEE7FEE783
:10177000FEE7FEE7FEE7FEE704480549054A064B9B
:1017800070470000850C000831010008900400201B
:10179000900A002090060020900600203149014365
:1017A000314A1160704770B5002100230F22C478C0
:1017B0000CB32D4C246804F4E064C4F5E064210A01
:1017C000C1F10403CA40447804FA03F18478144058
:1017D00021430901254C0678A155047804F01F0522
:1017E0000124AC4005786D114FF0E02606EB85052D
:1017F000C5F8004109E0047804F01F050124AC405D
:101800001B4D0678761145F8264070BD194A0A40EE
:101810000243154B1B1F1A60704739B1124A121D43
:1018200012680243104B1B1D1A6006E00E4A121D7F
:10183000126882430C4B1B1D1A607047042808D1A4
:101840004FF0E021096941F004014FF0E0221161FD
:1018500007E04FF0E021096921F004014FF0E02298
:10186000116170470000FA050CED00E000E400E0B3
:1018700080E100E080FFFF1F10B50446CA488442A3
:1018800008D10121042000F027FB0021042000F0F2
:1018900023FB46E0C548844208D10121082000F01E
:1018A0001BFB0021082000F017FB3AE0C0488442EF
:1018B00008D10121102000F00FFB0021102000F0C2
:1018C0000BFB2EE0BB48844208D10121202000F010
:1018D00003FB0021202000F0FFFA22E0B6488442FA
:1018E00008D10121402000F0F7FA0021402000F04B
:1018F000F3FA16E0B148844208D10121802000F0BB
:10190000EBFA0021802000F0E7FA0AE0AC488442BC
:1019100007D10121801500F0DFFA0021A01500F0A9
:10192000DBFA10BD10B50121084600F0D5FA002100
:10193000012000F0D1FA10BD2DE9F041024600254A
:101940000026002000230024002791F803C00CF09B
:101950000F0591F803C01CF0100F03D091F802C0DE
:101960004CEA050591F800C0BCF1000F31D01468B5
:1019700000202BE04FF0010C0CFA00F3B1F800C08E
:101980000CEA03069E4220D183004FF00F0C0CFAA4
:1019900003F7BC4305FA03FC4CEA040491F803C0C6
:1019A000BCF1280F06D14FF0010C0CFA00FCC2F874
:1019B00014C00AE091F803C0BCF1480F05D14FF004
:1019C000010C0CFA00FCC2F810C0401C0828D1D34E
:1019D0001460B1F800C0BCF1FF0F34DD5468002082
:1019E0002EE000F1080C4FF0010808FA0CF3B1F8F2
:1019F00000C00CEA03069E4221D183004FF00F0C79
:101A00000CFA03F7BC4305FA03FC4CEA040491F812
:101A100003C0BCF1280F05D100F1080C08FA0CF83E
:101A2000C2F8148091F803C0BCF1480F07D100F14F
:101A3000080C4FF0010808FA0CF8C2F81080401C9E
:101A40000828CED35460BDE8F0814FF6FF710180C5
:101A5000022181700421C170704702460020936802
:101A60000B4201D0012000E0002070470146886849
:101A700080B2704702460020D3680B4201D001209B
:101A800000E0002070470146C86880B270470161DD
:101A90007047416170470AB1016100E041617047E0
:101AA000C16070474FF480320A4382618161826174
:101AB00082698269704702460020424B18684FF6DF
:101AC0008073184040EA021008433E4B186070478C
:101AD0003D49C8617047F0B50A4600230024002143
:101AE000002500F00046B6F1004F02D1354EF169F5
:101AF00001E0344E7168C0F3034583B200F4401630
:101B0000B6F5401F08D121F070612E4E766826F0A0
:101B100070662C4F7E6012E000F48016B6F5801FD0
:101B200006D1032606FA05F4A14341F0706106E0F0
:101B3000460D360103FA06F6B14341F0706122B159
:101B4000460D360103FA06F6314300F00046B6F1C1
:101B5000004F02D11B4EF16101E01A4E7160F0BDE1
:101B600030B500228B071C0F0F2303FA04F2154B2C
:101B700008338C1053F824309343124C08348D10E2
:101B800044F8253023468C1053F824308C07240F5A
:101B900000FA04F423430B4C08348D1044F825302C
:101BA00030BD0A490860704700080140000C014040
:101BB000001001400014014000180140001C0140C9
:101BC000002001400000014000002042DC002042D3
:101BD000DD48006840F00100DB49086008464068C5
:101BE000DA490840D849486008460068D8490840A2
:101BF000D54908600846006820F48020086008463F
:101C0000406820F4FE0048604FF41F008860704771
:101C1000CD49096821F48031CB4A11601146096829
:101C200021F480211160B0F5803F03D0B0F5802F02
:101C30000ED106E0C449096841F48031C24A1160FE
:101C400007E0C149096841F4A021BF4A116000E0E2
:101C500000BF00BF704710B50146002200230020DE
:101C60004A11012A02D1B84C236806E0022A02D1A7
:101C7000B54C236A01E0B44C636A01F01F020124F1
:101C800094401C4201D0012000E0002010BD38B576
:101C9000002000900024002500BF3120FFF7DBFF6B
:101CA00005460098401C00900098B0F5A06F01D048
:101CB000002DF2D03120FFF7CEFF08B1012400E063
:101CC0000024204638BD014600209F4A106820F0BD
:101CD000F80040EAC100106070479E4908607047F4
:101CE00002460020984B586820F47C1042EA010319
:101CF0001843954B586070479649086670470146EF
:101D00000020914A506820F003000843506070475B
:101D10008D48406800F00C007047014600208A4A58
:101D2000506820F0F00008435060704701460020E2
:101D3000854A506820F4E0600843506070470146CF
:101D40000020814A506820F4605040EAC100506091
:101D5000704729B17C4A527A02437B4B5A7204E0A5
:101D6000794A527A8243784B5A7270477A490860AE
:101D7000704701460020744A506820F440400843F0
:101D8000506070470021754A11706F4A82F8201028
:101D9000012802D0042808D103E001216F4A117004
:101DA00004E005216D4A117000E000BF00BF7047DC
:101DB0006B49086070476449096A0143624A1162CD
:101DC0007047674944390860704730B500210022E8
:101DD000002400235C4D6D6805F00C0121B104293D
:101DE00005D0082923D105E05E4D056022E05D4D58
:101DF00005601FE0544D6D6805F47012524D6D681A
:101E000005F48034022505EB92421CB9564D55432A
:101E100005600BE04C4D6D6815F4003F03D0524D4A
:101E20005543056002E04F4D5543056002E04D4DBE
:101E3000056000BF00BF444D6D6805F0F001090961
:101E40004A4D6B5C0568DD4045603F4D6D6805F4AB
:101E5000E061090A454D6B5C4568DD4085603A4D9F
:101E60006D6805F46051C90A404D6B5C4568DD4002
:101E7000C560354D6D6805F44041890B3C4D6B5C88
:101E8000C568B5FBF3F5056130BD29B12E4A52692D
:101E900002432D4B5A6104E02B4A526982432A4B7C
:101EA0005A61704729B1284A92690243264B9A61C8
:101EB00004E0254A92698243234B9A61704729B115
:101EC000214AD2690243204BDA6104E01E4AD269FA
:101ED00082431D4BDA61704729B11B4AD268024325
:101EE000194BDA6004E0184AD2688243164BDA6074
:101EF000704729B1144A12690243134B1A6104E076
:101F0000114A12698243104B1A61704714494039D3
:101F1000086070470F49C86470470B49C871704723
:101F20000948406A40F0807007494862704701469E
:101F30000020054A92680A4201D0012000E00020FA
:101F40007047014988727047001002400000FFF896
:101F5000FFFFF6FE00004242D8004242201002403D
:101F60008004424200127A0000093D00180400205B
:101F70002804002010B50446F748844209D1012105
:101F80004805FFF7B6FF00214FF40010FFF7B1FF3F
:101F900008E001218805FFF7ACFF00214FF4800025
:101FA000FFF7A7FF10BD2DE9F04385B004460D46AD
:101FB0000026B1460427DFF8A483A6884FF6C07038
:101FC00006406846FFF701FFDDF80880E448B8FBEB
:101FD000F0F01FFA80F946EA0906A68020884FF63D
:101FE000FE71084020800026DE49286888420CD80F
:101FF00028684000B8FBF0F087B2042F00DA04270D
:102000003E4309F10100208427E0E888A0F53F4124
:10201000FF3906D1286800EB4000B8FBF0F087B22A
:1020200009E0286800EBC00101EB0010B8FBF0F0FC
:1020300087B247F480473805000D01D147F001070A
:1020400047F4004006434FF4967009FB00F04FF44C
:102050007A7190FBF1F0401C2084A683208840F028
:102060000100208026884FF6F5300640A88869894F
:10207000084306432680A88929890843208105B0A2
:10208000BDE8F08341F288310160002181804BF688
:10209000FF71C1800021018141814FF48041818124
:1020A000704721B1028842F00102028004E00288F8
:1020B0004FF6FE731A400280704721B1828842F4C5
:1020C0000062828004E082884FF2FF731A408280AF
:1020D000704721B1828842F48052828004E0828875
:1020E0004EF6FF731A408280704721B1028842F495
:1020F0008072028004E002884FF6FF631A4002807B
:10210000704721B1028842F40072028004E0028824
:102110004FF6FF531A400280704721B1028842F403
:102120008062028004E002884FF6FF331A4002808A
:1021300070470A46002181894FF60173194002F069
:10214000FE0319438181704721B1828942F0010267
:10215000828104E082894FF6FE731A4082817047C3
:1021600021B1028842F04002028004E002884FF66A
:10217000BF731A40028070471AB183880B43838073
:1021800002E083888B438380704701827047014659
:10219000088AC0B2704712B141F0010102E04FF667
:1021A000FE7319400182704708B502460020009076
:1021B00000920098084400900098008808BD21B162
:1021C000028842F40042028003E00288C2F30E0259
:1021D00002807047B1F5006F04D1028842F40062BA
:1021E000028004E002884FF2FF731A4002807047B9
:1021F000B1F5005F04D1028842F40052028004E08D
:1022000002884DF6FF731A400280704721B10288A0
:1022100042F48052028004E002884EF6FF731A40B6
:1022200002807047B1F5006F04D1028842F4006269
:10223000028004E002884FF2FF731A400280704768
:1022400021B1028842F02002028004E002884FF6A9
:10225000DF731A40028070470146088B00127047F6
:1022600021B1028842F01002028004E002884FF699
:10227000EF731A400280704721B9028842F0800251
:10228000028004E002884FF67F731A400280704794
:10229000B1F5804F05D0828B4BF6FF731A408283D5
:1022A00003E0828B42F480428283704770B502461D
:1022B0000024002500230020958A138B1B0445EA87
:1022C000030626F07F4404EA01068E4201D1012074
:1022D00000E0002070BD10B5014600200023002260
:1022E0008B8A0A8B120443EA020424F07F4010BD5B
:1022F0000CB50246002000230193009300920B0FBF
:10230000019321F07F41019B1BB1009B143300938B
:1023100003E0090C009B18330093009B1B680B42E1
:1023200001D0012000E000200CBD002221F07F42FE
:10233000D3438382704730B502460020002394883F
:1023400001F0E06504EA154321F07F41948A0C42D4
:102350000AD04BB1012008E00054004000127A007E
:1023600040420F00A0860100002030BD002221F075
:102370007F42D34383827047002044490860091D8F
:102380000860091D0860091D086041483F49143173
:102390000860704700213D498279002A3AD00A46F8
:1023A000126803689A430B461A600A1D1268036894
:1023B0009A430B1D1A60027911440A6803681A4394
:1023C0000A60324A0832126803689A432F4B083376
:1023D0001A601A1D126803689A432C4B0C331A605A
:1023E0004279102A0ED11A1F126803681A43274B2C
:1023F00008331A601A1D126803681A43234B0C3302
:102400001A600DE02149427911440A6803681A43B1
:102410000A6005E0027911440A6803689A430A6079
:1024200070470021016001710C214171002181710F
:1024300070471649103109680143144A103211607F
:10244000704701460020114A143212680A4201D036
:10245000012000E0002070470C49143108607047EB
:10246000014600200022094B1B6803EA0102074BCA
:1024700014331B680B4202D00AB1012000E0002097
:1024800070470249143108607047000000040140A1
:10249000FFFF0F00704770477047754600F028F83F
:1024A000AE4605006946534620F00700854618B041
:1024B00020B5FFF761F9BDE820404FF000064FF06E
:1024C00000074FF000084FF0000B21F00701AC4669
:1024D000ACE8C009ACE8C009ACE8C009ACE8C00988
:1024E0008D4670470446AFF300802046FDF787FE17
:1024F000004870472C04002001491820ABBEFEE7BD
:102500002600020070470000000000000000002FBD
:10251000000000000700070000147F147F1400244F
:102520002A7F2A120062640813230036495522507C
:1025300000000503000000001C22410000004122B1
:102540001C000014083E08140008083E080800009B
:1025500000A0600000080808080800006060000093
:10256000002010080402003E5149453E0000427F11
:102570004000004261514946002141454B3100185D
:1025800014127F10002745454539003C4A4949301F
:1025900000017109050300364949493600064949D9
:1025A000291E0000363600000000563600000008E4
:1025B00014224100001414141414000041221408C1
:1025C00000020151090600324959513E007C1211A6
:1025D000127C007F49494936003E41414122007F3B
:1025E0004141221C007F49494941007F09090901F5
:1025F000003E4149497A007F0808087F0000417F7A
:102600004100002040413F01007F08142241007F2B
:1026100040404040007F020C027F007F0408107F92
:10262000003E4141413E007F09090906003E4151FB
:10263000215E007F091929460046494949310001B8
:10264000017F0101003F4040403F001F2040201F0C
:10265000003F4038403F00631408146300070870CF
:10266000080700615149454300007F414100005582
:102670002A552A55000041417F000004020102044E
:10268000004040404040000001020400002054543B
:102690005478007F4844443800384444442000388B
:1026A0004444487F00385454541800087E090102FD
:1026B0000018A4A4A47C007F080404780000447DD2
:1026C0004000004080847D00007F1028440000000E
:1026D000417F4000007C04180478007C08040478E2
:1026E00000384444443800FC2424241800182424CE
:1026F00018FC007C080404080048545454200004CA
:102700003F444020003C4040207C001C2040201CD6
:10271000003C4030403C004428102844001CA0A04D
:10272000A07C004464544C44141414141414000089
:102730000000000000000000000000000000000099
:1027400000F800000000000000333000000000101E
:102750000C06100C0600000000000000000040C045
:102760007840C0784000043F04043F040400007037
:1027700088FC08300000001820FF211E0000F0082F
:10278000F000E018000000211C031E211E0000F0D4
:102790000888700000001E2123241927211010161C
:1027A0000E0000000000000000000000000000001B
:1027B00000E018040200000000071820400000029A
:1027C0000418E0000000004020180700000040400E
:1027D00080F0804040000202010F01020200000070
:1027E00000F0000000000101011F010101000000D4
:1027F00000000000000080B0700000000000000039
:1028000000000000000000010101010101010000C1
:102810000000000000000030300000000000000058
:10282000000080601804006018060100000000E04D
:1028300010080810E000000F102020100F000010FA
:1028400010F8000000000020203F20200000007051
:102850000808088870000030282422213000003049
:102860000888884830000018202020110E00000041
:10287000C02010F8000000070424243F240000F8C2
:102880000888880808000019212020110E0000E0A7
:10289000108888180000000F112020110E00003849
:1028A0000808C83808000000003F00000000007061
:1028B000880808887000001C222121221C0000E0EA
:1028C00010080810E0000000312222110F00000063
:1028D00000C0C00000000000003030000000000018
:1028E0000080000000000000806000000000000088
:1028F0008040201008000001020408102000404021
:102900004040404040000404040404040400000863
:102910001020408000000020100804020100007018
:1029200048080808F0000000003036010000C03000
:10293000C828E810E0000718272423140B00000023
:10294000C038E0000000203C23020227382008F8AD
:10295000888888700000203F202020110E00C030A1
:10296000080808083800071820202010080008F878
:1029700008080810E000203F202020100F0008F871
:102980008888E8081000203F20202320180008F83D
:102990008888E8081000203F200003000000C030B5
:1029A00008080838000007182020221E020008F836
:1029B00008000008F808203F210101213F200008FD
:1029C00008F8080800000020203F20200000000038
:1029D0000808F8080800C08080807F00000008F820
:1029E00088C028180800203F20012638200008F859
:1029F000080000000000203F20202020300008F8C0
:102A0000F800F8F80800203F003F003F200008F8D9
:102A100030C00008F808203F200007183F00E010F1
:102A200008080810E0000F10202020100F0008F800
:102A300008080808F000203F210101010000E01013
:102A400008080810E0000F18242438504F0008F838
:102A5000888888887000203F2000030C3020007098
:102A60008808080838000038202121221C00180896
:102A700008F8080818000000203F2000000008F8AF
:102A800008000008F808001F202020201F000878F8
:102A9000880000C83808000007380E010000F80858
:102AA00000F80008F800033C0700073C0300081882
:102AB00068808068180820302C03032C30200838E8
:102AC000C800C83808000000203F2000000010089F
:102AD0000808C838080020382621202018000000E7
:102AE00000FE020202000000007F40404000000C97
:102AF00030C000000000000000010638C0000002E5
:102B00000202FE000000004040407F000000000084
:102B100004020202040000000000000000000000A7
:102B200000000000000080808080808080800002A3
:102B3000020400000000000000000000000000008F
:102B40008080808000000019242222223F2008F883
:102B5000008080000000003F112020110E000000C6
:102B6000008080800000000E112020201100000055
:102B700000808088F800000E112020103F20000007
:102B8000808080800000001F22222222130000800B
:102B900080F0888888180020203F20200000000056
:102BA000808080808000006B94949493600008F88B
:102BB000008080800000203F210000203F20008016
:102BC0009898000000000020203F20200000000016
:102BD00000809898000000C08080807F000008F886
:102BE000000080808000203F24022D30200000085B
:102BF00008F8000000000020203F20200000808016
:102C0000808080808000203F20003F20003F808027
:102C1000008080800000203F210000203F20000035
:102C2000808080800000001F202020201F008080E6
:102C300000808000000080FFA12020110E00000015
:102C4000008080808000000E112020A0FF80808006
:102C500080008080800020203F21200001000000B3
:102C60008080808080000033242424241900008088
:102C700080E0808000000000001F20200000808095
:102C8000000000808000001F202020103F20808056
:102C900080000080808000010E30080601008080E6
:102CA0000080008080800F300C030C300F0000800B
:102CB0008000808080000020312E0E312000808036
:102CC00080000080808080818E7018060100008066
:102CD0008080808080000021302C22213000000084
:102CE0000000807C020200000000003F4040000025
:102CF0000000FF00000000000000FF0000000002D4
:102D0000027C800000000040403F00000000000600
:102D100001010202040400000000000000000000A5
:102D2000402D0008000000202C0400006C01000869
:102D3000FC2E00082C04002064060000C8010008D6
:102D40001184A24A040018120102030406070809AC
:102D500002E222223E8080FF80A09088868080252B
:102D60004382423E000911FF402106081020401313
:102D70008070000D14FF08104060504C43405060BC
:102D8000C032FF2BFE42010213FE180CFE225A86AF
:102D9000088868180FE8080109113E000E110408A0
:102DA0000720110D41817F01050930080F104040B7
:102DB000202050484443444850202040A0111F0286
:102DC00042E2524A467D05125262C2021F10600260
:102DD0000CC004012AFC0501122E04047C0320010E
:102DE0003A3F06091240128C080911FC011610F234
:102DF000121202E01504047E0112FF0008131111E3
:102E00001F1151807F5D08884828FD031308082D95
:102E100020110905FD19FE0A10117F19201C18C781
:102E200044012AFC050913C02B0407DA2AFF05090F
:102E300012E1215BFE22010911BF113E8040300FDB
:102E400002010B124282BF29404A820109123F410E
:102E50004BFF40010215FF16FC848484FC2A1001FC
:102E60000412FF10101A3F19223F0D120106408074
:102E700080081013804020908886808080838C108A
:102E8000204080211318071C40804045011317245F
:102E900024A4FE232213C03812FF0411081060007E
:102EA0000F12080601FF01068180404027100C0325
:102EB00015404042CC000B1440A09E8282829EA00E
:102EC0002020080C113F908840432C102846418058
:102ED000A018081715D55557557D040C12D5151790
:102EE000604C407F55011A7F0C01592D01020304EB
:0C2EF00004000900060708090204060897
:0400000508000131BD
:00000001FF
